:100000000C942A000C943E000C9462000C9489001D
:100010000C943C000C943C000C943C000C94AB0001
:100020000C943C000C943C000C943C000C943C0060
:100030000C943C000C943C000C943C000C943C0050
:100040000C943C000C943C000C943C000C943C0040
:100050000C943C0011241FBECFE5D8E0DEBFCDBF1D
:1000600020E0A0E6B0E001C01D92A636B207E1F79D
:100070000E94C1000C9460110C9400001F920F921A
:100080000FB60F9211248F939F93EF93FF93CF930B
:10009000DF93CDB7DEB78CE490E0FC0111821082D3
:1000A0001092600010926100109262000000DF91D7
:1000B000CF91FF91EF919F918F910F900FBE0F9075
:1000C0001F9018951F920F920FB60F9211242F9325
:1000D0008F939F93EF93FF93CF93DF93CDB7DEB7CB
:1000E0008EE490E0FC0120818EE490E0287FFC010A
:1000F000208381E0809365000000DF91CF91FF9124
:10010000EF919F918F912F910F900FBE0F901F90A5
:1001100018951F920F920FB60F9211242F938F9361
:100120009F93EF93FF93CF93DF93CDB7DEB78EE42A
:1001300090E02DE0FC012083109265000000DF912B
:10014000CF91FF91EF919F918F912F910F900FBEC3
:100150000F901F9018951F920F920FB60F921124B7
:100160008F93CF93DF93CDB7DEB781E080936400A8
:100170000000DF91CF918F910F900FBE0F901F90D5
:100180001895CF93DF93CDB7DEB7A2970FB6F8944B
:10019000DEBF0FBECDBF0E9404020E948B010E94F1
:1001A000A6010E94C1010E94DC010E94DA02809136
:1001B0006500882319F00E94670808C080916400D8
:1001C000882321F00E9474021092640086E390E07C
:1001D000DC018C9188234CF380E090E0A0EFB1E447
:1001E00089839A83AB83BC8320E030E04AE755E4FF
:1001F00069817A818B819C810E94CB106B8B7C8B77
:100200008D8B9E8B8B899C89AD89BE898D839E83C6
:10021000AF83B88720E030E040E85FE36D817E8106
:100220008F8198850E94451088232CF481E090E00E
:100230009A87898754C020E03FEF4FE757E46D81EC
:100240007E818F8198850E94C6101816D4F520E013
:1002500030E040E251E469817A818B819C810E9487
:10026000CB106F8B788F898F9A8F8F89988DA98DFE
:10027000BA8D8F87988BA98BBA8B6F85788989897E
:100280009A890E944A106B8F7C8F8D8F9E8FAB8DC9
:10029000BC8DBA87A98710C080E991E09C878B87C5
:1002A0008B859C850197F1F79C878B87000089855A
:1002B0009A8501979A87898789859A85892B61F71D
:1002C00019C06D817E818F8198850E944A106F8F41
:1002D00078A389A39AA3EF8DF8A1FA87E987898586
:1002E0009A859E878D878D859E850197F1F79E87DC
:1002F0008D87000086E390E0DC018C9188230CF46C
:1003000054CF0E94580F000086E390E0FC018081EA
:100310008823D4F74ACFCF93DF93CDB7DEB785E5F7
:1003200090E0FC01208185E590E02260FC012083C3
:100330008BE590E0FC0120818BE590E02064FC01DE
:10034000208378940000DF91CF910895CF93DF93BD
:10035000CDB7DEB785E590E0FC01208185E590E032
:100360002C60FC0120838BE590E0FC0120818BE573
:1003700090E02068FC01208378940000DF91CF9109
:100380000895CF93DF93CDB7DEB784E590E0FC010D
:10039000208184E590E02F7BFC0120838BE590E0B9
:1003A000FC0120818BE590E02062FC0120837894A1
:1003B0000000DF91CF910895CF93DF93CDB7DEB7E3
:1003C0008CE490E0FC01118210828FE490E028E040
:1003D000FC0120838EE490E02DE0FC0120838AE480
:1003E00090E029E03DE3FC013183208389E590E042
:1003F000FC01208189E590E02061FC012083789454
:100400000000DF91CF910895CF93DF93CDB7DEB792
:1004100081E390E0FC01208181E390E02163FC0115
:10042000208382E390E0FC01208182E390E02E7F34
:10043000FC01208382E390E0FC01208182E390E0D4
:100440002061FC01208382E390E0FC01208182E3B3
:1004500090E02F7DFC0120838AE390E02FE3FC01F4
:10046000208384E390E0FC01208184E390E02F600E
:10047000FC01208381E390E0FC01208181E390E096
:10048000237FFC01208382E390E0FC01208182E352
:1004900090E02460FC01208387E390E0FC01208150
:1004A00087E390E02B77FC01208388E390E0FC0158
:1004B000208188E390E02468FC01208387E390E0BA
:1004C000FC01208187E390E02478FC01208388E30D
:1004D00090E0FC01208188E390E02B67FC01208301
:1004E0000000DF91CF910895CF93DF93CDB7DEB7B2
:1004F00080916300882321F5809160008F5F809355
:100500006000809160008C3309F050C01092600050
:10051000809161008F5F80936100809161008C33D6
:1005200009F044C010926100809162008F5F809357
:100530006200809162008831C9F51092620036C075
:1005400080916300813091F580916000882349F5A6
:10055000809161008823E1F480916200882361F436
:100560008EE490E0FC0120818EE490E0287FFC0185
:1005700020830E94910F1AC0809162008150809365
:1005800062008BE3809361008BE3809360000EC078
:10059000809161008150809361008BE380936000C3
:1005A00005C0809160008150809360000000DF9161
:1005B000CF9108950F931F93CF93DF93CDB7DEB7FD
:1005C000CC5CD1090FB6F894DEBF0FBECDBF8BE374
:1005D00090E020E2DC012C9385E390E0FC01808137
:1005E000382F307F209160008DEC289F812D1124C1
:1005F000982F969596959695892F880F880F890F35
:10060000880F922F981B892F8F70232F282B85E31B
:1006100090E0DC012C939E01295B3F4F80E090E04D
:10062000A0E0B0E4F90180839183A283B3838E01BB
:10063000055B1F4FCE01895B9F4F20E030E04AE70A
:1006400055E4DC016D917D918D919C910E94CB10C0
:10065000E1966CAF7DAF8EAF9FAFE197E1962CAD89
:100660003DAD4EAD5FADE197D8012D933D934D93D8
:100670005C931397CE01855B9F4F20E030E040E80C
:100680005FE3FC0160817181828193810E9445104A
:1006900088234CF4CE01815B9F4F21E030E0DC01E8
:1006A0002D933C9392C0CE01855B9F4F20E03FEF9E
:1006B0004FE757E4FC0160817181828193810E9440
:1006C000C61018160CF067C0CE01895B9F4F20E062
:1006D00030E040E251E4DC016D917D918D919C917F
:1006E0000E94CB10E5966CAF7DAF8EAF9FAFE597C4
:1006F000E5962CAD3DAD4EAD5FADE597AD962CAF1B
:100700003DAF4EAF5FAFAD978E01015B1F4FAD9612
:100710006CAD7DAD8EAD9FADAD970E944A10E99650
:100720006CAF7DAF8EAF9FAFE997E796EEADFFADB3
:10073000E797D801ED93FC9325C0CE018F5A9F4FC8
:1007400020E931E0DC012D933C93CE018F5A9F4F7D
:10075000FC01808191810197F1F79E012F5A3F4F53
:10076000D9018D939C930000CE01815B9F4F9E0128
:10077000215B3F4FF9012081318121503109DC019A
:100780002D933C93CE01815B9F4FFC018081918131
:10079000892B99F635C08E01015B1F4FCE01855B19
:1007A0009F4FDC016D917D918D919C910E944A102B
:1007B000ED966CAF7DAF8EAF9FAFED97EB962EAD04
:1007C0003FADEB97F80131832083CE018D5A9F4FC7
:1007D0009E01215B3F4FD9012D913C91FC0131835A
:1007E0002083CE018D5A9F4FDC018D919C91019702
:1007F000F1F79E012D5A3F4FF9019183808300004C
:100800008BE390E020E1DC012C9385E390E0FC0198
:100810008081982F907F209160008DEC289F812D02
:1008200011248695869586958F70292F282B85E330
:1008300090E0DC012C9380E090E0A0E0B0E489AF90
:100840009AAFABAFBCAF20E030E04AE755E469AD0A
:100850007AAD8BAD9CAD0E94CB10C358DF4F68833F
:1008600079838A839B83CD57D040CE01CD96C358E0
:10087000DF4F288139814A815B81CD57D040DC012F
:100880002D933D934D935C93139720E030E040E827
:100890005FE3CE01CD96FC016081718182819381FD
:1008A0000E94451088234CF4CE018F5B9F4F21E0BE
:1008B00030E0DC012D933C9398C020E03FEF4FE700
:1008C00057E4CE01CD96FC016081718182819381D4
:1008D0000E94C61018160CF06BC020E030E040E219
:1008E00051E469AD7AAD8BAD9CAD0E94CB10CF5772
:1008F000DF4F688379838A839B83C158D040CF5769
:10090000DF4F288139814A815B81C158D040A99647
:100910002CAF3DAF4EAF5FAFA9978E010F5B1F4F5E
:10092000A9966CAD7DAD8EAD9FADA9970E944A1082
:10093000CB57DF4F688379838A839B83C558D04028
:10094000CB57DF4FE881F981C558D040D801ED93EE
:10095000FC9325C0CE018D5B9F4F20E931E0DC0187
:100960002D933C93CE018D5B9F4FFC018081918143
:100970000197F1F79E012D5B3F4FD9018D939C9319
:100980000000CE018F5B9F4F9E012F5B3F4FF9010F
:100990002081318121503109DC012D933C93CE011E
:1009A0008F5B9F4FFC0180819181892B99F638C024
:1009B0008E010F5B1F4FCE01CD96DC016D917D91B5
:1009C0008D919C910E944A10C757DF4F68837983AD
:1009D0008A839B83C958D040C757DF4F288139810C
:1009E000C958D040F80131832083CE018B5B9F4FE3
:1009F0009E012F5B3F4FD9012D913C91FC0131832A
:100A00002083CE018B5B9F4FDC018D919C910197E0
:100A1000F1F79E012B5B3F4FF9019183808300002A
:100A20008BE390E028E0DC012C9385E390E0FC016F
:100A30008081382F307F209161008DEC289F812D9F
:100A40001124982F969596959695892F880F880F43
:100A5000890F880F922F981B892F8F70232F282B97
:100A600085E390E0DC012C9380E090E0A0E0B0E42E
:100A70008BA79CA7ADA7BEA720E030E04AE755E4CE
:100A80006BA57CA58DA59EA50E94CB10C357DF4FFB
:100A9000688379838A839B83CD58D040C357DF4FC7
:100AA000288139814A815B81CD58D0402FA738AB4E
:100AB00049AB5AAB20E030E040E85FE36FA578A98E
:100AC00089A99AA90E94451088232CF481E090E01E
:100AD0009CAB8BAB71C020E03FEF4FE757E46FA5B5
:100AE00078A989A99AA90E94C61018160CF04EC0C0
:100AF00020E030E040E251E46BA57CA58DA59EA5E9
:100B00000E94CB10CF56DF4F688379838A839B8303
:100B1000C159D040CF56DF4F88819981AA81BB81CE
:100B2000C159D040A5968CAF9DAFAEAFBFAFA597D2
:100B3000A5966CAD7DAD8EAD9FADA5970E944A1078
:100B4000CB56DF4F688379838A839B83C559D04016
:100B5000CB56DF4FA881B981C559D040BCABABABF8
:100B600010C080E991E09EAB8DAB8DA99EA9019745
:100B7000F1F79EAB8DAB00008BA99CA901979CABB4
:100B80008BAB8BA99CA9892B61F721C06FA578A994
:100B900089A99AA90E944A10C756DF4F68837983B2
:100BA0008A839B83C959D040C756DF4FE881F981BA
:100BB000C959D040FCABEBAB8BA99CA998AF8FABCC
:100BC0008FA998AD0197F1F798AF8FAB00008BE339
:100BD00090E024E0DC012C9385E390E0FC0180812F
:100BE000982F907F209161008DEC289F812D1124FA
:100BF0008695869586958F70292F282B85E390E022
:100C0000DC012C9380E090E0A0E0B0E48D8F9E8F1B
:100C1000AF8FB8A320E030E04AE755E46D8D7E8DBC
:100C20008F8D98A10E94CB10C356DF4F68837983C4
:100C30008A839B83CD59D040C356DF4F28813981A9
:100C40004A815B81CD59D04029A33AA34BA35CA331
:100C500020E030E040E85FE369A17AA18BA19CA18C
:100C60000E94451088232CF481E090E09EA38DA380
:100C700071C020E03FEF4FE757E469A17AA18BA153
:100C80009CA10E94C61018160CF04EC020E030E067
:100C900040E251E46D8D7E8D8F8D98A10E94CB1026
:100CA000CF55DF4F688379838A839B83C15AD040B5
:100CB000CF55DF4F88819981AA81BB81C15AD0402D
:100CC000A1968CAF9DAFAEAFBFAFA197A1966CAD13
:100CD0007DAD8EAD9FADA1970E944A10CB55DF4FE1
:100CE000688379838A839B83C55AD040CB55DF4F75
:100CF000A881B981C55AD040BEA3ADA310C080E978
:100D000091E098A78FA38FA198A50197F1F798A7D5
:100D10008FA300008DA19EA101979EA38DA38DA1FD
:100D20009EA1892B61F721C069A17AA18BA19CA109
:100D30000E944A10C755DF4F688379838A839B835B
:100D4000C95AD040C755DF4FE881F981C95AD04010
:100D5000FEA3EDA38DA19EA19AA789A789A59AA517
:100D60000197F1F79AA789A700008BE390E022E0B2
:100D7000DC012C9385E390E0FC018081382F307FEB
:100D8000209162008DEC289F812D1124982F96953B
:100D900096959695892F880F880F890F880F922F27
:100DA000981B892F8F70232F282B85E390E0DC017F
:100DB0002C9380E090E0A0E0B0E48F87988BA98B23
:100DC000BA8B20E030E04AE755E46F85788989895D
:100DD0009A890E94CB10C355DF4F688379838A8339
:100DE0009B83CD5AD040C355DF4F288139814A813A
:100DF0005B81CD5AD0402B8B3C8B4D8B5E8B20E0A2
:100E000030E040E85FE36B897C898D899E890E9490
:100E1000451088232CF481E090E0988F8F8B71C06F
:100E200020E03FEF4FE757E46B897C898D899E89ED
:100E30000E94C61018160CF04EC020E030E040E2D0
:100E400051E46F85788989899A890E94CB10CF54A3
:100E5000DF4F688379838A839B83C15BD040CF5403
:100E6000DF4F88819981AA81BB81C15BD0406D969B
:100E70008CAF9DAFAEAFBFAF6D976D966CAD7DADD6
:100E80008EAD9FAD6D970E944A10CB54DF4F6883A3
:100E900079838A839B83C55BD040CB54DF4FA88185
:100EA000B981C55BD040B88FAF8B10C080E991E0AD
:100EB0009A8F898F898D9A8D0197F1F79A8F898FF3
:100EC00000008F89988D0197988F8F8B8F89988DCF
:100ED000892B61F721C06B897C898D899E890E944D
:100EE0004A10C754DF4F688379838A839B83C95B29
:100EF000D040C754DF4FE881F981C95BD040F88FFB
:100F0000EF8B8F89988D9C8F8B8F8B8D9C8D01970C
:100F1000F1F79C8F8B8F00008BE390E021E0DC01E8
:100F20002C9385E390E0FC018081982F907F2091A5
:100F300062008DEC289F812D1124869586958695DB
:100F40008F70292F282B85E390E0DC012C9380E023
:100F500090E0A0E0B0E489839A83AB83BC8320E077
:100F600030E04AE755E469817A818B819C810E9457
:100F7000CB10C354DF4F688379838A839B83CD5B17
:100F8000D040C354DF4F288139814A815B81CD5BDA
:100F9000D0402D833E834F83588720E030E040E8E7
:100FA0005FE36D817E818F8198850E944510882343
:100FB0002CF481E090E09A87898771C020E03FEFB0
:100FC0004FE757E46D817E818F8198850E94C6101E
:100FD00018160CF04EC020E030E040E251E4698188
:100FE0007A818B819C810E94CB10CF53DF4F688325
:100FF00079838A839B83C15CD040CF53DF4F888144
:101000009981AA81BB81C15CD04069968CAF9DAFAC
:10101000AEAFBFAF699769966CAD7DAD8EAD9FAD3C
:1010200069970E944A10CB53DF4F688379838A8384
:101030009B83C55CD040CB53DF4FA881B981C55C91
:10104000D040BA87A98710C080E991E09C878B8740
:101050008B859C850197F1F79C878B87000089859C
:101060009A8501979A87898789859A85892B61F75F
:1010700021C06D817E818F8198850E944A10C7535F
:10108000DF4F688379838A839B83C95CD040C753D1
:10109000DF4FE881F981C95CD040FA87E98789850B
:1010A0009A859E878D878D859E850197F1F79E870E
:1010B0008D8700000000C453DF4F0FB6F894DEBFE9
:1010C0000FBECDBFDF91CF911F910F9108950F9368
:1010D0001F93CF93DF93CDB7DEB7CE5ED1090FB6A6
:1010E000F894DEBF0FBECDBF86E390E0DC018C91AB
:1010F000882F90E081709927892B09F0D1C080E07A
:1011000090E0A0EFB1E489839A83AB83BC8320E0B5
:1011100030E04AE755E469817A818B819C810E94A5
:10112000CB10C158DF4F688379838A839B83CF5765
:10113000D040C158DF4F288139814A815B81CF5728
:10114000D0402D833E834F83588720E030E040E835
:101150005FE36D817E818F8198850E944510882391
:101160002CF481E090E09A87898771C020E03FEFFE
:101170004FE757E46D817E818F8198850E94C6106C
:1011800018160CF04EC020E030E040E251E46981D6
:101190007A818B819C810E94CB10CD57DF4F688371
:1011A00079838A839B83C358D040CD57DF4F888192
:1011B0009981AA81BB81C358D040A7968CAF9DAFBF
:1011C000AEAFBFAFA797A7966CAD7DAD8EAD9FAD0F
:1011D000A7970E944A10C957DF4F688379838A8393
:1011E0009B83C758D040C957DF4FA881B981C758E2
:1011F000D040BA87A98710C080E991E09C878B878F
:101200008B859C850197F1F79C878B8700008985EA
:101210009A8501979A87898789859A85892B61F7AD
:1012200021C06D817E818F8198850E944A10C557AB
:10123000DF4F688379838A839B83CB58D040C5571F
:10124000DF4FE881F981CB58D040FA87E98789855B
:101250009A859E878D878D859E850197F1F79E875C
:101260008D87000086E390E0DC018C91882F90E070
:1012700081709927892B49F480916200882329F095
:1012800080916200815080936200000086E390E0CC
:10129000FC018081882F90E081709927892BB1F320
:1012A00086E390E0DC018C91882F90E08270992792
:1012B000892B09F0D1C080E090E0A0EFB1E48F87E6
:1012C000988BA98BBA8B20E030E04AE755E46F8514
:1012D000788989899A890E94CB10C157DF4F68832A
:1012E00079838A839B83CF58D040C157DF4F2881B1
:1012F00039814A815B81CF58D0402B8B3C8B4D8B01
:101300005E8B20E030E040E85FE36B897C898D896B
:101310009E890E94451088232CF481E090E0988FEC
:101320008F8B71C020E03FEF4FE757E46B897C89DA
:101330008D899E890E94C61018160CF04EC020E0C0
:1013400030E040E251E46F85788989899A890E946A
:10135000CB10CD56DF4F688379838A839B83C35933
:10136000D040CD56DF4F88819981AA81BB81C35976
:10137000D040AB968CAF9DAFAEAFBFAFAB97AB9647
:101380006CAD7DAD8EAD9FADAB970E944A10C95636
:10139000DF4F688379838A839B83C759D040C956BE
:1013A000DF4FA881B981C759D040B88FAF8B10C02B
:1013B00080E991E09A8F898F898D9A8D0197F1F755
:1013C0009A8F898F00008F89988D0197988F8F8BC6
:1013D0008F89988D892B61F721C06B897C898D89D4
:1013E0009E890E944A10C556DF4F688379838A839D
:1013F0009B83CB59D040C556DF4FE881F981CB594B
:10140000D040F88FEF8B8F89988D9C8F8B8F8B8D31
:101410009C8D0197F1F79C8F8B8F000086E390E005
:10142000DC018C91882F90E082709927892B49F4F8
:1014300080916200873128F4809162008F5F8093F1
:101440006200000086E390E0FC018081882F90E03C
:1014500082709927892BB1F386E390E0DC018C91AF
:10146000882F90E088709927892B09F0D1C080E0FF
:1014700090E0A0EFB1E48D8F9E8FAF8FB8A320E0F6
:1014800030E04AE755E46D8D7E8D8F8D98A10E94E6
:10149000CB10C156DF4F688379838A839B83CF59F2
:1014A000D040C156DF4F288139814A815B81CF59B5
:1014B000D04029A33AA34BA35CA320E030E040E84E
:1014C0005FE369A17AA18BA19CA10E9445108823AA
:1014D0002CF481E090E09EA38DA371C020E03FEF4B
:1014E0004FE757E469A17AA18BA19CA10E94C61085
:1014F00018160CF04EC020E030E040E251E46D8D53
:101500007E8D8F8D98A10E94CB10CD55DF4F6883C3
:1015100079838A839B83C35AD040CD55DF4F88811E
:101520009981AA81BB81C35AD040AF968CAF9DAF41
:10153000AEAFBFAFAF97AF966CAD7DAD8EAD9FAD8B
:10154000AF970E944A10C955DF4F688379838A8319
:101550009B83C75AD040C955DF4FA881B981C75A6C
:10156000D040BEA3ADA310C080E991E098A78FA39F
:101570008FA198A50197F1F798A78FA300008DA1DF
:101580009EA101979EA38DA38DA19EA1892B61F79A
:1015900021C069A17AA18BA19CA10E944A10C555C6
:1015A000DF4F688379838A839B83CB5AD040C555AC
:1015B000DF4FE881F981CB5AD040FEA3EDA38DA186
:1015C0009EA19AA789A789A59AA50197F1F79AA73D
:1015D00089A7000086E390E0DC018C91882F90E0E1
:1015E00088709927892B49F480916100882329F01C
:1015F00080916100815080936100000086E390E05B
:10160000FC018081882F90E088709927892BB1F3A5
:1016100086E390E0DC018C91882F90E0807199271F
:10162000892B09F0D1C080E090E0A0EFB1E48BA756
:101630009CA7ADA7BEA720E030E04AE755E46BA524
:101640007CA58DA59EA50E94CB10C155DF4F688358
:1016500079838A839B83CF5AD040C155DF4F28813D
:1016600039814A815B81CF5AD0402FA738AB49AB33
:101670005AAB20E030E040E85FE36FA578A989A984
:101680009AA90E94451088232CF481E090E09CAB3D
:101690008BAB71C020E03FEF4FE757E46FA578A90F
:1016A00089A99AA90E94C61018160CF04EC020E015
:1016B00030E040E251E46BA57CA58DA59EA50E947B
:1016C000CB10CD54DF4F688379838A839B83C35BC0
:1016D000D040CD54DF4F88819981AA81BB81C35B03
:1016E000D040E3968CAF9DAFAEAFBFAFE397E3962C
:1016F0006CAD7DAD8EAD9FADE3970E944A10C9548D
:10170000DF4F688379838A839B83C75BD040C9544A
:10171000DF4FA881B981C75BD040BCABABAB10C079
:1017200080E991E09EAB8DAB8DA99EA90197F1F761
:101730009EAB8DAB00008BA99CA901979CAB8BAB9A
:101740008BA99CA9892B61F721C06FA578A989A9CC
:101750009AA90E944A10C554DF4F688379838A830F
:101760009B83CB5BD040C554DF4FE881F981CB5BD5
:10177000D040FCABEBAB8BA99CA998AF8FAB8FA9EA
:1017800098AD0197F1F798AF8FAB000086E390E03A
:10179000DC018C91882F90E080719927892B49F486
:1017A000809161008B3328F4809161008F5F80937A
:1017B0006100000086E390E0FC018081882F90E0CA
:1017C00080719927892BB1F386E390E0DC018C913D
:1017D000882F90E080729927892B09F013C180E04F
:1017E00090E0A0EFB1E489AF9AAFABAFBCAF20E01F
:1017F00030E04AE755E469AD7AAD8BAD9CAD0E940F
:10180000CB10C154DF4F688379838A839B83CF5B7E
:10181000D040CE01CD96C154DF4F288139814A8115
:101820005B81CF5BD040DC012D933D934D935C9366
:10183000139720E030E040E85FE3CE01CD96FC0155
:1018400060817181828193810E94451088234CF4CC
:10185000CE018F5B9F4F21E030E0DC012D933C9364
:1018600098C020E03FEF4FE757E4CE01CD96FC0152
:1018700060817181828193810E94C61018160CF0DC
:101880006BC020E030E040E251E469AD7AAD8BAD51
:101890009CAD0E94CB10CD53DF4F688379838A8340
:1018A0009B83C35CD040CD53DF4F288139814A816F
:1018B0005B81C35CD040E7962CAF3DAF4EAF5FAFCE
:1018C000E7978E010F5B1F4FE7966CAD7DAD8EAD38
:1018D0009FADE7970E944A10C953DF4F6883798311
:1018E0008A839B83C75CD040C953DF4FE881F9816D
:1018F000C75CD040D801ED93FC9325C0CE018D5B31
:101900009F4F20E931E0DC012D933C93CE018D5BAC
:101910009F4FFC01808191810197F1F79E012D5B22
:101920003F4FD9018D939C930000CE018F5B9F4F59
:101930009E012F5B3F4FF9012081318121503109F8
:10194000DC012D933C93CE018F5B9F4FFC01808186
:101950009181892B99F638C08E010F5B1F4FCE0104
:10196000CD96DC016D917D918D919C910E944A10E4
:10197000C553DF4F688379838A839B83CB5CD040D8
:10198000C553DF4F28813981CB5CD040F8013183CA
:101990002083CE018B5B9F4F9E012F5B3F4FD90170
:1019A0002D913C91FC0131832083CE018B5B9F4FB5
:1019B000DC018D919C910197F1F79E012B5B3F4FCC
:1019C000F90191838083000086E390E0DC018C9133
:1019D000882F90E080729927892B49F480916000CC
:1019E000882329F08091600081508093600000007E
:1019F00086E390E0FC018081882F90E08072992737
:101A0000892BB1F386E390E0DC018C91882F90E084
:101A100080749927892B09F023C19E01295B3F4FD0
:101A200080E090E0A0EFB1E4F90180839183A2838C
:101A3000B3838E01055B1F4FCE01895B9F4F20E072
:101A400030E04AE755E4DC016D917D918D919C91E8
:101A50000E94CB10C153DF4F688379838A839B83B5
:101A6000CF5CD040C153DF4F288139814A815B81EF
:101A7000CF5CD040D8012D933D934D935C93139749
:101A8000CE01855B9F4F20E030E040E85FE3FC0142
:101A900060817181828193810E94451088234CF47A
:101AA000CE01815B9F4F21E030E0DC012D933C9320
:101AB0009EC0CE01855B9F4F20E03FEF4FE757E48C
:101AC000FC0160817181828193810E94C610181689
:101AD0000CF06FC0CE01895B9F4F20E030E040E208
:101AE00051E4DC016D917D918D919C910E94CB1010
:101AF000CD52DF4F688379838A839B83C35DD04057
:101B0000CD52DF4F288139814A815B81C35DD0404E
:101B1000EB962CAF3DAF4EAF5FAFEB978E01015B05
:101B20001F4FEB966CAD7DAD8EAD9FADEB970E94D8
:101B30004A10C952DF4F688379838A839B83C75DCC
:101B4000D040C952DF4FE881F981C75DD040D8014C
:101B5000ED93FC9325C0CE018F5A9F4F20E931E0D1
:101B6000DC012D933C93CE018F5A9F4FFC01808165
:101B700091810197F1F79E012F5A3F4FD9018D9323
:101B80009C930000CE01815B9F4F9E01215B3F4FE4
:101B9000F9012081318121503109DC012D933C93E1
:101BA000CE01815B9F4FFC0180819181892B99F649
:101BB00039C08E01015B1F4FCE01855B9F4FDC0159
:101BC0006D917D918D919C910E944A10C552DF4F7D
:101BD000688379838A839B83CB5DD040C552DF4F76
:101BE00028813981CB5DD040F80131832083CE013B
:101BF0008D5A9F4F9E01215B3F4FD9012D913C9102
:101C0000FC0131832083CE018D5A9F4FDC018D91E1
:101C10009C910197F1F79E012D5A3F4FF901918355
:101C20008083000086E390E0DC018C91882F90E0B7
:101C300080749927892B49F4809160008B3328F4B4
:101C4000809160008F5F80936000000086E390E0E9
:101C5000FC018081882F90E080749927892BB1F353
:101C600086E390E0DC018C9188230CF414C19E0182
:101C70002B5A3F4F80E090E0A0EFB1E4F901808360
:101C80009183A283B3838E01075A1F4FCE018B5AD3
:101C90009F4F20E030E04AE755E4DC016D917D91F3
:101CA0008D919C910E94CB10C152DF4F6883798344
:101CB0008A839B83CF5DD040C152DF4F2881398119
:101CC0004A815B81CF5DD040D8012D933D934D93E8
:101CD0005C931397CE01875A9F4F20E030E040E895
:101CE0005FE3FC0160817181828193810E944510D4
:101CF00088234CF4CE01835A9F4F21E030E0DC0171
:101D00002D933C939EC0CE01875A9F4F20E03FEF1A
:101D10004FE757E4FC0160817181828193810E94C9
:101D2000C61018160CF06FC0CE018B5A9F4F20E0E2
:101D300030E040E251E4DC016D917D918D919C9108
:101D40000E94CB10CD51DF4F688379838A839B83B8
:101D5000C35ED040CD51DF4F288139814A815B81FC
:101D6000C35ED040EF962CAF3DAF4EAF5FAFEF9765
:101D70008E01035A1F4FEF966CAD7DAD8EAD9FADBA
:101D8000EF970E944A10C951DF4F688379838A8395
:101D90009B83C75ED040C951DF4FE881F981C75EA0
:101DA000D040D801ED93FC9325C0CE01815A9F4FBE
:101DB00020E931E0DC012D933C93CE01815A9F4F05
:101DC000FC01808191810197F1F79E01215A3F4FDB
:101DD000D9018D939C930000CE01835A9F4F9E01A1
:101DE000235A3F4FF9012081318121503109DC0113
:101DF0002D933C93CE01835A9F4FFC0180819181AA
:101E0000892B99F639C08E01035A1F4FCE01875A8C
:101E10009F4FDC016D917D918D919C910E944A10A4
:101E2000C551DF4F688379838A839B83CB5ED04023
:101E3000C551DF4F28813981CB5ED040F801318315
:101E40002083CE018F599F4F9E01235A3F4FD901C6
:101E50002D913C91FC0131832083CE018F599F4FFE
:101E6000DC018D919C910197F1F79E012F593F4F15
:101E7000F90191838083000086E390E0DC018C917E
:101E8000882314F00E94580F000086E390E0FC01C4
:101E900080818823D4F70000C251DF4F0FB6F89439
:101EA000DEBF0FBECDBFDF91CF911F910F9108957F
:101EB000CF93DF93CDB7DEB79091630081E0992394
:101EC00009F080E08093630080916300882399F497
:101ED00082E390E0FC01208182E390E02061FC013C
:101EE000208382E390E0FC01208182E390E02F7D5B
:101EF000FC01208312C082E390E0FC01208182E398
:101F000090E02062FC01208382E390E0FC012081CC
:101F100082E390E02F7EFC0120830000DF91CF91CF
:101F20000895CF93DF93CDB7DEB7A2970FB6F8949D
:101F3000DEBF0FBECDBF82E390E0DC012C9182E3D7
:101F400090E02160FC01208380E090E0AAEFB4E4FF
:101F500089839A83AB83BC8320E030E04AE755E471
:101F600069817A818B819C810E94CB106B8B7C8BE9
:101F70008D8B9E8B8B899C89AD89BE898D839E8339
:101F8000AF83B88720E030E040E85FE36D817E8179
:101F90008F8198850E94451088232CF481E090E081
:101FA0009A87898754C020E03FEF4FE757E46D815F
:101FB0007E818F8198850E94C6101816D4F520E086
:101FC00030E040E251E469817A818B819C810E94FA
:101FD000CB106F8B788F898F9A8F8F89988DA98D71
:101FE000BA8D8F87988BA98BBA8B6F8578898989F1
:101FF0009A890E944A106B8F7C8F8D8F9E8FAB8D3C
:10200000BC8DBA87A98710C080E991E09C878B8737
:102010008B859C850197F1F79C878B8700008985CC
:102020009A8501979A87898789859A85892B61F78F
:1020300019C06D817E818F8198850E944A106F8FB3
:1020400078A389A39AA3EF8DF8A1FA87E9878985F8
:102050009A859E878D878D859E850197F1F79E874E
:102060008D87000082E390E0DC012C9182E390E018
:102070002E7FFC0120830000A2960FB6F894DEBFED
:102080000FBECDBFDF91CF9108950E94791008F463
:1020900081E008950E94A51088F09F5798F0B92F0D
:1020A0009927B751B0F0E1F0660F771F881F991F8D
:1020B0001AF0BA95C9F714C0B13091F00E94BF1060
:1020C000B1E008950C94BF10672F782F8827B85F70
:1020D00039F0B93FCCF3869577956795B395D9F7E5
:1020E0003EF490958095709561957F4F8F4F9F4FEF
:1020F0000895990F0008550FAA0BE0E8FEEF161699
:102100001706E807F907C0F012161306E407F507EB
:1021100098F0621B730B840B950B39F40A2661F05F
:10212000232B242B252B21F408950A2609F4A14002
:10213000A6958FEF811D811D089557FD9058440F7E
:10214000551F59F05F3F71F04795880F97FB991F16
:1021500061F09F3F79F087950895121613061406D3
:10216000551FF2CF4695F1DF08C016161706180660
:10217000991FF1CF86957105610508940895E8943B
:10218000BB2766277727CB0197F908950E9479101E
:1021900008F48FEF08950E94DE100C944F110E94F6
:1021A000411138F00E94481120F0952311F00C9451
:1021B00038110C943E1111240C94C0100E949D10F3
:1021C00070F3959FC1F3950F50E0551F629FF0018A
:1021D000729FBB27F00DB11D639FAA27F00DB11DA3
:1021E000AA1F649F6627B00DA11D661F829F22272C
:1021F000B00DA11D621F739FB00DA11D621F839FB3
:10220000A00D611D221F749F3327A00D611D231F88
:10221000849F600D211D822F762F6A2F11249F57D6
:1022200050409AF0F1F088234AF0EE0FFF1FBB1FD9
:10223000661F771F881F91505040A9F79E3F510598
:1022400080F00C9438110C94C0105F3FE4F3983E7A
:10225000D4F3869577956795B795F795E7959F5F42
:10226000C1F7FE2B880F911D9695879597F90895D4
:1022700097F99F6780E870E060E008959FEF80EC39
:10228000089500240A9416161706180609060895DC
:1022900000240A9412161306140605060895092E42
:1022A0000394000C11F4882352F0BB0F40F4BF2BB1
:1022B00011F460FF04C06F5F7F4F8F4F9F4F0895F1
:0422C000F894FFCFC0
:00000001FF
